:0200000038289E
:0E0006008312031329088A00280882000800CC
:1000140003208A110A128000840AA80A0319A90A73
:08002400F003031D0A28080087
:10002C00831203131A08F100981C1E2818121816B4
:06003C007108F00008004D
:10004200831603139816903083129800831687172D
:10005200071383128C1E30281A08F0002A28080081
:0E0062000030831203138C1A0130F0000800E6
:1000700083120313A001A101A201A301A401A50100
:1000800083160317890188018312031385010F303A
:100090008316850088018312880104308316990035
:1000A000181521200230FB004530FC00A930FD006E
:1000B000FD0B5828FC0B5828FB0B582800000000AB
:1000C000831603178801890183120313AC01AD0164
:1000D000831688018312880183168717831287137A
:1000E00083160710871083120710871022187A28AA
:1000F00007107B28071424187F288710802887146E
:1001000031207008013A031D4D2D16207008B000F3
:100110003D2D31207008013A031DB52916207008C5
:10012000B000E028AA01AB0120290130AA0000306C
:10013000AB0020290230AA000030AB002029033098
:10014000AA000030AB0020290430AA000030AB0028
:1001500020290530AA000030AB0020290630AA0073
:100160000030AB0020290730AA000030AB00202966
:100170000830AA000030AB0020290930AA00003066
:10018000AB0020290A30AA000030AB0020290B3038
:10019000AA000030AB0020290C30AA000030AB00D0
:1001A00020290D30AA000030AB0020290E30AA0013
:1001B0000030AB0020290F30AA000030AB0020290E
:1001C0003008303A031992283008313A031995283B
:1001D0003008323A03199A283008333A03199F2815
:1001E0003008343A0319A4283008353A0319A928ED
:1001F0003008363A0319AE283008373A0319B328C5
:100200003008383A0319B8283008393A0319BD289C
:100210003008413A0319C2283008423A0319C72866
:100220003008433A0319CC283008443A0319D1283E
:100230003008453A0319D6283008463A0319DB2816
:1002400031207008013A031DB52916207008B0004E
:100250007529B5291030AA070318AB0AB529203033
:10026000AA070318AB0AB5293030AA070318AB0A4E
:10027000B5294030AA070318AB0AB5295030AA07A0
:100280000318AB0AB5296030AA070318AB0AB529D1
:100290007030AA070318AB0AB5298030AA070318E3
:1002A000AB0AB5299030AA070318AB0AB529A030CC
:1002B000AA070318AB0AB529B030AA070318AB0A7E
:1002C000B529C030AA070318AB0AB529D030AA0750
:1002D0000318AB0AB529E030AA070318AB0AB52901
:1002E000F030AA070318AB0AB5293008303A0319D1
:1002F00029293008313A03192A293008323A0319DA
:100300002F293008333A031934293008343A0319B5
:1003100039293008353A03193E293008363A03198D
:1003200043293008373A031948293008383A031965
:100330004D293008393A031952293008413A031936
:1003400057293008423A03195C293008433A031907
:1003500061293008443A031966293008453A0319DF
:100360006B293008463A031970294D2D3120700849
:10037000013A031DE22A16207008B0000D2AAE01D2
:10038000AF014D2A0130AE000030AF004D2A0230DF
:10039000AE000030AF004D2A0330AE000030AF0099
:1003A0004D2A0430AE000030AF004D2A0530AE00BB
:1003B0000030AF004D2A0630AE000030AF004D2AAD
:1003C0000730AE000030AF004D2A0830AE000030DC
:1003D000AF004D2A0930AE000030AF004D2A0A3080
:1003E000AE000030AF004D2A0B30AE000030AF0041
:1003F0004D2A0C30AE000030AF004D2A0D30AE005B
:100400000030AF004D2A0E30AE000030AF004D2A54
:100410000F30AE000030AF004D2A3008303A0319DB
:10042000BF293008313A0319C2293008323A03197A
:10043000C7293008333A0319CC293008343A031954
:10044000D1293008353A0319D6293008363A03192C
:10045000DB293008373A0319E0293008383A031904
:10046000E5293008393A0319EA293008413A0319D5
:10047000EF293008423A0319F4293008433A0319A6
:10048000F9293008443A0319FE293008453A03197E
:10049000032A3008463A0319082A31207008013A25
:1004A000031DE22A16207008B000A22AE22A1030AA
:1004B000AE070318AF0AE22A2030AE070318AF0ACE
:1004C000E22A3030AE070318AF0AE22A4030AE0706
:1004D0000318AF0AE22A5030AE070318AF0AE22A27
:1004E0006030AE070318AF0AE22A7030AE07031877
:1004F000AF0AE22A8030AE070318AF0AE22A903032
:10050000AE070318AF0AE22AA030AE070318AF0AFD
:10051000E22AB030AE070318AF0AE22AC030AE07B5
:100520000318AF0AE22AD030AE070318AF0AE22A56
:10053000E030AE070318AF0AE22AF030AE07031826
:10054000AF0AE22A3008303A0319562A3008313A05
:100550000319572A3008323A03195C2A3008333A13
:100560000319612A3008343A0319662A3008353AEB
:1005700003196B2A3008363A0319702A3008373AC3
:100580000319752A3008383A03197A2A3008393A9B
:1005900003197F2A3008413A0319842A3008423A65
:1005A0000319892A3008433A03198E2A3008443A3D
:1005B0000319932A3008453A0319982A3008463A15
:1005C00003199D2A4D2D31207008013A031D0F2C6F
:1005D00016207008B0003A2BA601A7017A2B013033
:1005E000A6000030A7007A2B0230A6000030A7003A
:1005F0007A2B0330A6000030A7007A2B0430A60027
:100600000030A7007A2B0530A6000030A7007A2B17
:100610000630A6000030A7007A2B0730A600003075
:10062000A7007A2B0830A6000030A7007A2B0930EB
:10063000A6000030A7007A2B0A30A6000030A700E1
:100640007A2B0B30A6000030A7007A2B0C30A600C6
:100650000030A7007A2B0D30A6000030A7007A2BBF
:100660000E30A6000030A7007A2B0F30A600003015
:10067000A7007A2B3008303A0319EC2A3008313AB7
:100680000319EF2A3008323A0319F42A3008333AB2
:100690000319F92A3008343A0319FE2A3008353A8A
:1006A0000319032B3008363A0319082B3008373A60
:1006B00003190D2B3008383A0319122B3008393A38
:1006C0000319172B3008413A03191C2B3008423A02
:1006D0000319212B3008433A0319262B3008443ADA
:1006E00003192B2B3008453A0319302B3008463AB2
:1006F0000319352B31207008013A031D0F2C1620E9
:100700007008B000CF2B0F2C1030A6070318A70AD3
:100710000F2C2030A6070318A70A0F2C3030A6078D
:100720000318A70A0F2C4030A6070318A70A0F2C9E
:100730005030A6070318A70A0F2C6030A60703182D
:10074000A70A0F2C7030A6070318A70A0F2C8030B9
:10075000A6070318A70A0F2C9030A6070318A70AAC
:100760000F2CA030A6070318A70A0F2CB030A6073D
:100770000318A70A0F2CC030A6070318A70A0F2CCE
:10078000D030A6070318A70A0F2CE030A6070318DD
:10079000A70A0F2CF030A6070318A70A0F2C300861
:1007A000303A0319832B3008313A0319842B30086F
:1007B000323A0319892B3008333A03198E2B30084B
:1007C000343A0319932B3008353A0319982B300823
:1007D000363A03199D2B3008373A0319A22B3008FB
:1007E000383A0319A72B3008393A0319AC2B3008D3
:1007F000413A0319B12B3008423A0319B62B30089D
:10080000433A0319BB2B3008443A0319C02B300874
:10081000453A0319C52B3008463A0319CA2B4D2D0A
:1008200031207008013A031D3C2D16207008B000DD
:10083000672CA001A101A72C0130A0000030A1006D
:10084000A72C0230A0000030A100A72C0330A0008C
:100850000030A100A72C0430A0000030A100A72C7C
:100860000530A0000030A100A72C0630A000003009
:10087000A100A72C0730A0000030A100A72C083051
:10088000A0000030A100A72C0930A0000030A1007A
:10089000A72C0A30A0000030A100A72C0B30A0002C
:1008A0000030A100A72C0C30A0000030A100A72C24
:1008B0000D30A0000030A100A72C0E30A0000030A9
:1008C000A100A72C0F30A0000030A100A72C3008F9
:1008D000303A0319192C3008313A03191C2C30080E
:1008E000323A0319212C3008333A0319262C3008E8
:1008F000343A03192B2C3008353A0319302C3008C0
:10090000363A0319352C3008373A03193A2C300897
:10091000383A03193F2C3008393A0319442C30086F
:10092000413A0319492C3008423A03194E2C300839
:10093000433A0319532C3008443A0319582C300811
:10094000453A03195D2C3008463A0319622C3120D0
:100950007008013A031D3C2D16207008B000FC2CD5
:100960003C2D1030A0070318A10A3C2D2030A00711
:100970000318A10A3C2D3030A0070318A10A3C2D12
:100980004030A0070318A10A3C2D5030A0070318DF
:10099000A10A3C2D6030A0070318A10A3C2D70303D
:1009A000A0070318A10A3C2D8030A0070318A10A54
:1009B0003C2D9030A0070318A10A3C2DA030A007C1
:1009C0000318A10A3C2DB030A0070318A10A3C2D42
:1009D000C030A0070318A10A3C2DD030A00703188F
:1009E000A10A3C2DE030A0070318A10A3C2DF030ED
:1009F000A0070318A10A3C2D3008303A0319B02C87
:100A00003008313A0319B12C3008323A0319B62CA8
:100A10003008333A0319BB2C3008343A0319C02C80
:100A20003008353A0319C52C3008363A0319CA2C58
:100A30003008373A0319CF2C3008383A0319D42C30
:100A40003008393A0319D92C3008413A0319DE2C01
:100A50003008423A0319E32C3008433A0319E82CD2
:100A60003008443A0319ED2C3008453A0319F22CAA
:100A70003008463A0319F72C4D2D3008473A031930
:100A800089283008483A0319B6293008493A031929
:100A9000E32A3008473A0319102C051C512D2A0867
:100AA0008800851C552D2E088800051D592D260807
:0E0AB0008800851D5D2D2008880076285E2DAB
:04400E00F22F000786
:00000001FF
