:0200000049298C
:10000800FF00030E8301AA000A08AB008A017008EA
:10001800A0002408003A031D192885012808860035
:10002800013085000130A4001F28850127088600BB
:1000380002308500A401810120308B002008F000E7
:0E0048002B088A002A0E8300FF0E7F0E09008F
:0E0056008312031326088A0025088200080082
:10006400710DF80DF90D7408F8027508031C750F6D
:10007400F902F00DF10D0F30FC00710DF80DF90DC2
:100084007408701C4B28F8027508031C750FF902DC
:100094005028F80775080318750FF907F00DF10DCE
:1000A400FC0B3F2870185C287408F80775080318BF
:0800B400750FF90700000800B8
:1000BC002B208A110A128000840AA50A0319A60AA9
:0800CC00F003031D5E2808008B
:1000D4008928B328063083120313F000B3285B3059
:1000E400F000B3284F30F000B3286630F000B32896
:1000F4006D30F000B3287D30F000B3280730F000F5
:10010400B3287F30F000B3286F30F000B328831297
:1001140003132C08003A03196B282C08013A03191D
:100124006C282C08023A031971282C08033A031985
:1001340074282C08043A031977282C08053A031963
:100144007A282C08063A03197D282C08073A031943
:1001540080282C08083A031983282C08093A031923
:0401640086280800E1
:0E0168000030831203138C1A0130F0000800DF
:1001760083160313981690308312980083168717F8
:10018600071383128C1ECA281A08F000C428080018
:10019600831203137408003A031DDA287508003A1F
:1001A600031DDA28FF30F0007F30F1003329831277
:1001B6000313FD01F901F8017108700403190034F5
:1001C60071087506FA00FA1BFD09FB01F51FF028F8
:1001D600F409F509F40A0319F50AF11FF728F009DD
:1001E600F109F00A0319F10A71087504FA00FA1BFD
:1001F6000C2932207B181F29FD1F0034F009F10954
:10020600F00A0319F10AF809F909F80A0319F90AB3
:100216000034F51F1B29F11B17297108F900700816
:10022600F800F101F001FF28F101F001F00A0034B5
:10023600F109F009FB0AFC28F80A0319F90A7408FF
:100246007802031DFF2875087902031DFF28F901AE
:10025600F801F00A0319F10AF11FFF280000FF3424
:0202660008008E
:10026800831203131A08F100981C3C291812181657
:060278007108F00008000F
:10027E00831603139818452900003F2983122C0872
:04028E0099000800CB
:1002920083120313A101A201A3018316031788018C
:1002A200890103138501831285018030831686003C
:1002B2008312860183160815831208118030831673
:1002C200810083128101A0308B00CF308316990008
:1002D2001811BB208230FC00DD30FD00FD0B6F29C0
:1002E200FC0B6F2900000000B4207008013A031DC6
:1002F200FC2934217008A100C4293030A20000304A
:10030200A300FC293130A2000030A300FC293230C6
:10031200A2000030A300FC293330A2000030A30069
:10032200FC293430A2000030A300FC293530A200A1
:100332000030A300FC293630A2000030A300FC29C3
:100342003730A2000030A300FC293830A200003070
:10035200A300FC293930A2000030A300FC292B3075
:10036200A2000030A300FC292D30A2000030A3001F
:10037200FC292A30A2000030A300FC292F30A20061
:100382000030A300FC292108303A03197E292108F4
:10039200313A031983292108323A0319882921089D
:1003A200333A03198D292108343A03199229210875
:1003B200353A031997292108363A03199C2921084D
:1003C200373A0319A1292108383A0319A629210825
:1003D200393A0319AB2921082B3A0319B02921080C
:1003E2002D3A0319B52921082A3A0319BA292108F5
:1003F2002F3A0319BF290A30F400F5012208F00050
:100402002308F100CB207808F0007908F100700889
:10041200A9007008AC006A20831203137008A800B8
:100422000A30F400F5012208F0002308F100CB2085
:100432000A30F400F501CB207808F0007908F100C9
:100442007008A9007008AC006A20831203137008B8
:10045200A7000230FC004B30FD00FD0B2E2AFC0BE6
:100462002E2A081D372A3230AC003F217529382A3E
:04400E00F22F000786
:00000001FF
