:02000000622874
:1000060083160313871283122908043A031D0E2848
:1000160083168715102883168711071683129401F5
:10002600290894042B0894042A088316940483123E
:100036002B08031925282C08003A031D24288316AB
:1000460014172B2883122C0803192B288316141730
:060056008312941608005D
:10005C008316031398169030831298008316871713
:10006C00071383128C1E3D281A08F000372808004D
:10007C00831603139818442800003E28831229087D
:04008C0099000800CF
:1000900083120313290893008316141851280000B3
:0A00A0004C2883121308F00008003A
:1000AA008312031329089300831614185E2800008C
:0A00BA00592883121308F000080013
:1000C40083120313A301A401A501A601A701A8019A
:1000D400831603178901880186018312031386019D
:1000E4000714831607108312A901AA01AB01AC01FE
:1000F400032081308316990018152E200330FB004D
:100104008A30FC005530FD00FD0B8628FC0B862848
:10011400FB0B862800000000A70A0319A80AA30104
:10012400A40180302406F00080307002031D9C2856
:100134003230230203184429202907109F30A900D4
:1001440048202208A90055207008A500A60107141C
:10015400250886002508A9003E20A501A601000067
:1001640000000000000000000710DF30A900482054
:100174002208A90055207008A500A6010714250827
:10018400860000302507F00026080318013E013ED2
:10019400F1007008A5007108A6007008A9003E20AF
:1001A400A501A601000000000000000000000710E7
:1001B400AF30A90048202208A90055207008A500E6
:1001C400A60107142508860000302507F00026083C
:1001D4000318013E023EF1007008A5007108A60054
:1001E4007008A9003E20A501A6010000000000003F
:1001F400000000000710EF30A90048202208A900E1
:1002040055207008A500A6010714250886000030B3
:100214002507F00026080318013E033EF10070088C
:10022400A5007108A6007008A9003E20A501A6013A
:1002340000000000000000000000402900302806F3
:10024400031D26290130270603199F28003028069C
:10025400031D2E29023027060319B628003028066C
:10026400031D3629033027060319D9280030280630
:10027400031D3E29043027060319FC28A30A031989
:10028400A40A932800302806031D4A2904302706AF
:0C029400031D4E29A701A8018E284F2948
:04400E00F22F000786
:00000001FF
