:020000003D2899
:0E0006008312031327088A00260882000800D0
:1000140003208A110A128000840AA60A0319A70A77
:08002400F003031D0A28080087
:10002C008316031398169030831298008316871743
:10003C00071383128C1E25281A08F0001F280800AD
:10004C00831603178801890183120313A401A501E8
:10005C0083168801831288018316871783128713EE
:0E006C008316071087108312071087100800F4
:10007A0083120313A001A101A201A30126200130CA
:10008A0083169900181516200230FB000430FC0074
:10009A00BA30FD00FD0B4F28FC0B4F28FB0B4F28F5
:1000AA00000020185A2807105B28071422185F2816
:1000BA00871060288714A401A50100302502031DBA
:1000CA006828FF3024020318702824088700A40A2D
:1000DA000319A50A622800302506031D7628FF3079
:0E00EA002406031D7A28A401A50156287B28B0
:04400E00F22F000786
:00000001FF
